{
  "contractName": "Lottery",
  "abi": [
    {
      "constant": false,
      "inputs": [],
      "name": "renounceOwnership",
      "outputs": [],
      "payable": false,
      "stateMutability": "nonpayable",
      "type": "function"
    },
    {
      "constant": true,
      "inputs": [],
      "name": "owner",
      "outputs": [
        {
          "name": "",
          "type": "address"
        }
      ],
      "payable": false,
      "stateMutability": "view",
      "type": "function"
    },
    {
      "constant": true,
      "inputs": [],
      "name": "isOwner",
      "outputs": [
        {
          "name": "",
          "type": "bool"
        }
      ],
      "payable": false,
      "stateMutability": "view",
      "type": "function"
    },
    {
      "constant": false,
      "inputs": [
        {
          "name": "newOwner",
          "type": "address"
        }
      ],
      "name": "transferOwnership",
      "outputs": [],
      "payable": false,
      "stateMutability": "nonpayable",
      "type": "function"
    },
    {
      "anonymous": false,
      "inputs": [
        {
          "indexed": true,
          "name": "addr",
          "type": "address"
        },
        {
          "indexed": false,
          "name": "gameId",
          "type": "uint256"
        },
        {
          "indexed": false,
          "name": "betAmount",
          "type": "uint256"
        },
        {
          "indexed": false,
          "name": "team",
          "type": "uint256"
        }
      ],
      "name": "SuccessfullyBet",
      "type": "event"
    },
    {
      "anonymous": false,
      "inputs": [
        {
          "indexed": true,
          "name": "addr",
          "type": "address"
        },
        {
          "indexed": false,
          "name": "transferAmount",
          "type": "uint256"
        }
      ],
      "name": "Transfer",
      "type": "event"
    },
    {
      "anonymous": false,
      "inputs": [
        {
          "indexed": true,
          "name": "previousOwner",
          "type": "address"
        },
        {
          "indexed": true,
          "name": "newOwner",
          "type": "address"
        }
      ],
      "name": "OwnershipTransferred",
      "type": "event"
    },
    {
      "constant": false,
      "inputs": [],
      "name": "holdNewLot",
      "outputs": [
        {
          "name": "",
          "type": "uint256"
        }
      ],
      "payable": false,
      "stateMutability": "nonpayable",
      "type": "function"
    },
    {
      "constant": false,
      "inputs": [
        {
          "name": "_gameId",
          "type": "uint256"
        },
        {
          "name": "_betAmount",
          "type": "uint256"
        },
        {
          "name": "_team",
          "type": "uint256"
        }
      ],
      "name": "bet",
      "outputs": [
        {
          "name": "",
          "type": "bool"
        }
      ],
      "payable": true,
      "stateMutability": "payable",
      "type": "function"
    },
    {
      "constant": false,
      "inputs": [
        {
          "name": "_gameId",
          "type": "uint256"
        },
        {
          "name": "_team",
          "type": "uint256"
        }
      ],
      "name": "payback",
      "outputs": [],
      "payable": false,
      "stateMutability": "nonpayable",
      "type": "function"
    },
    {
      "constant": true,
      "inputs": [
        {
          "name": "_gameId",
          "type": "uint256"
        },
        {
          "name": "_team",
          "type": "uint256"
        }
      ],
      "name": "getOdd",
      "outputs": [
        {
          "name": "",
          "type": "uint256"
        }
      ],
      "payable": false,
      "stateMutability": "view",
      "type": "function"
    },
    {
      "constant": true,
      "inputs": [],
      "name": "getRecords",
      "outputs": [
        {
          "name": "",
          "type": "uint256[]"
        },
        {
          "name": "",
          "type": "uint256[]"
        }
      ],
      "payable": false,
      "stateMutability": "view",
      "type": "function"
    },
    {
      "constant": true,
      "inputs": [
        {
          "name": "_gameId",
          "type": "uint256"
        }
      ],
      "name": "getTotalAmount",
      "outputs": [
        {
          "name": "",
          "type": "uint256"
        }
      ],
      "payable": false,
      "stateMutability": "view",
      "type": "function"
    },
    {
      "constant": true,
      "inputs": [
        {
          "name": "_gameId",
          "type": "uint256"
        },
        {
          "name": "_team",
          "type": "uint256"
        }
      ],
      "name": "getTeamAmount",
      "outputs": [
        {
          "name": "",
          "type": "uint256"
        }
      ],
      "payable": false,
      "stateMutability": "view",
      "type": "function"
    }
  ],
  "bytecode": "0x60806040526000600355336000806101000a81548173ffffffffffffffffffffffffffffffffffffffff021916908373ffffffffffffffffffffffffffffffffffffffff1602179055506000809054906101000a900473ffffffffffffffffffffffffffffffffffffffff1673ffffffffffffffffffffffffffffffffffffffff16600073ffffffffffffffffffffffffffffffffffffffff167f8be0079c531659141344cd1fd0a4f28419497f9722a3daafe3b4186f6b6457e060405160405180910390a361138a806100d46000396000f3fe6080604052600436106100af576000357c0100000000000000000000000000000000000000000000000000000000900463ffffffff1680633583de13146100b4578063715018a6146100f95780638da5cb5b146101105780638eff3c29146101675780638f32d59b1461021b578063a21c01c31461024a578063aeae9732146102a3578063bfc54822146102fc578063f0e4066214610356578063f2ddfd99146103a5578063f2fde38b146103d0575b600080fd5b3480156100c057600080fd5b506100f7600480360360408110156100d757600080fd5b810190808035906020019092919080359060200190929190505050610421565b005b34801561010557600080fd5b5061010e610754565b005b34801561011c57600080fd5b5061012561088f565b604051808273ffffffffffffffffffffffffffffffffffffffff1673ffffffffffffffffffffffffffffffffffffffff16815260200191505060405180910390f35b34801561017357600080fd5b5061017c6108b8565b604051808060200180602001838103835285818151815260200191508051906020019060200280838360005b838110156101c35780820151818401526020810190506101a8565b50505050905001838103825284818151815260200191508051906020019060200280838360005b838110156102055780820151818401526020810190506101ea565b5050505090500194505050505060405180910390f35b34801561022757600080fd5b50610230610b35565b604051808215151515815260200191505060405180910390f35b34801561025657600080fd5b5061028d6004803603604081101561026d57600080fd5b810190808035906020019092919080359060200190929190505050610b8c565b6040518082815260200191505060405180910390f35b3480156102af57600080fd5b506102e6600480360360408110156102c657600080fd5b810190808035906020019092919080359060200190929190505050610cd7565b6040518082815260200191505060405180910390f35b61033c6004803603606081101561031257600080fd5b81019080803590602001909291908035906020019092919080359060200190929190505050610d09565b604051808215151515815260200191505060405180910390f35b34801561036257600080fd5b5061038f6004803603602081101561037957600080fd5b8101908080359060200190929190505050610f8a565b6040518082815260200191505060405180910390f35b3480156103b157600080fd5b506103ba610faa565b6040518082815260200191505060405180910390f35b3480156103dc57600080fd5b5061041f600480360360208110156103f357600080fd5b81019080803573ffffffffffffffffffffffffffffffffffffffff169060200190929190505050611115565b005b610429610b35565b151561049d576040517f08c379a00000000000000000000000000000000000000000000000000000000081526004018080602001828103825260208152602001807f4f776e61626c653a2063616c6c6572206973206e6f7420746865206f776e657281525060200191505060405180910390fd5b60035482101515610516576040517f08c379a00000000000000000000000000000000000000000000000000000000081526004018080602001828103825260148152602001807f47616d65204944206f7574206f662072616e676500000000000000000000000081525060200191505060405180910390fd5b8060016000848152602001908152602001600020600081548110151561053857fe5b906000526020600020906003020160010181905550606060016000848152602001908152602001600020805480602002602001604051908101604052809291908181526020016000905b8282101561061f57838290600052602060002090600302016060604051908101604052908160008201548152602001600182015481526020016002820160009054906101000a900473ffffffffffffffffffffffffffffffffffffffff1673ffffffffffffffffffffffffffffffffffffffff1673ffffffffffffffffffffffffffffffffffffffff168152505081526020019060010190610582565b50505050905060006106318484610cd7565b90506000600190505b825181101561074d5783838281518110151561065257fe5b90602001906020020151602001511415610740576000838281518110151561067657fe5b90602001906020020151604001519050600083858481518110151561069757fe5b90602001906020020151600001510290508173ffffffffffffffffffffffffffffffffffffffff166108fc829081150290604051600060405180830381858888f193505050501580156106ee573d6000803e3d6000fd5b508173ffffffffffffffffffffffffffffffffffffffff167f69ca02dd4edd7bf0a4abb9ed3b7af3f14778db5d61921c7dc7cd545266326de2826040518082815260200191505060405180910390a250505b808060010191505061063a565b5050505050565b61075c610b35565b15156107d0576040517f08c379a00000000000000000000000000000000000000000000000000000000081526004018080602001828103825260208152602001807f4f776e61626c653a2063616c6c6572206973206e6f7420746865206f776e657281525060200191505060405180910390fd5b600073ffffffffffffffffffffffffffffffffffffffff166000809054906101000a900473ffffffffffffffffffffffffffffffffffffffff1673ffffffffffffffffffffffffffffffffffffffff167f8be0079c531659141344cd1fd0a4f28419497f9722a3daafe3b4186f6b6457e060405160405180910390a360008060006101000a81548173ffffffffffffffffffffffffffffffffffffffff021916908373ffffffffffffffffffffffffffffffffffffffff160217905550565b60008060009054906101000a900473ffffffffffffffffffffffffffffffffffffffff16905090565b6060806060600260003373ffffffffffffffffffffffffffffffffffffffff1673ffffffffffffffffffffffffffffffffffffffff1681526020019081526020016000205460405190808252806020026020018201604052801561092b5781602001602082028038833980820191505090505b5090506060600260003373ffffffffffffffffffffffffffffffffffffffff1673ffffffffffffffffffffffffffffffffffffffff1681526020019081526020016000205460405190808252806020026020018201604052801561099e5781602001602082028038833980820191505090505b509050600080905060008090505b600354811015610b275760008090505b6001600083815260200190815260200160002080549050811015610b19576109e2611326565b6001600084815260200190815260200160002082815481101515610a0257fe5b90600052602060002090600302016060604051908101604052908160008201548152602001600182015481526020016002820160009054906101000a900473ffffffffffffffffffffffffffffffffffffffff1673ffffffffffffffffffffffffffffffffffffffff1673ffffffffffffffffffffffffffffffffffffffff168152505090503373ffffffffffffffffffffffffffffffffffffffff16816040015173ffffffffffffffffffffffffffffffffffffffff161415610b0b5780600001518685815181101515610ad357fe5b906020019060200201818152505080602001518585815181101515610af457fe5b906020019060200201818152505083806001019450505b5080806001019150506109bc565b5080806001019150506109ac565b508282945094505050509091565b60008060009054906101000a900473ffffffffffffffffffffffffffffffffffffffff1673ffffffffffffffffffffffffffffffffffffffff163373ffffffffffffffffffffffffffffffffffffffff1614905090565b6000606060016000858152602001908152602001600020805480602002602001604051908101604052809291908181526020016000905b82821015610c6057838290600052602060002090600302016060604051908101604052908160008201548152602001600182015481526020016002820160009054906101000a900473ffffffffffffffffffffffffffffffffffffffff1673ffffffffffffffffffffffffffffffffffffffff1673ffffffffffffffffffffffffffffffffffffffff168152505081526020019060010190610bc3565b505050509050600080905060008090505b8251811015610ccb57848382815181101515610c8957fe5b90602001906020020151602001511415610cbe578281815181101515610cab57fe5b9060200190602002015160000151820191505b8080600101915050610c71565b50809250505092915050565b600080610ce384610f8a565b90506000610cf18585610b8c565b90508082811515610cfe57fe5b049250505092915050565b6000806000905060035485101515610d89576040517f08c379a00000000000000000000000000000000000000000000000000000000081526004018080602001828103825260148152602001807f47616d65204944206f7574206f662072616e676500000000000000000000000081525060200191505060405180910390fd5b8084013410151515610e03576040517f08c379a00000000000000000000000000000000000000000000000000000000081526004018080602001828103825260158152602001807f4e6f7420656e6f75676820706169642076616c7565000000000000000000000081525060200191505060405180910390fd5b600160008681526020019081526020016000206060604051908101604052808681526020018581526020013373ffffffffffffffffffffffffffffffffffffffff1681525090806001815401808255809150509060018203906000526020600020906003020160009091929091909150600082015181600001556020820151816001015560408201518160020160006101000a81548173ffffffffffffffffffffffffffffffffffffffff021916908373ffffffffffffffffffffffffffffffffffffffff160217905550505050600260003373ffffffffffffffffffffffffffffffffffffffff1673ffffffffffffffffffffffffffffffffffffffff168152602001908152602001600020600081548092919060010191905055503373ffffffffffffffffffffffffffffffffffffffff167f1b6c8a0add1d123995d9ed767f454cf41a20971aeb7a940282edf0658d7771c586868660405180848152602001838152602001828152602001935050505060405180910390a260019150509392505050565b6000610f97826002610b8c565b610fa2836001610b8c565b019050919050565b6000610fb4610b35565b1515611028576040517f08c379a00000000000000000000000000000000000000000000000000000000081526004018080602001828103825260208152602001807f4f776e61626c653a2063616c6c6572206973206e6f7420746865206f776e657281525060200191505060405180910390fd5b6001600060035481526020019081526020016000206060604051908101604052806000815260200160008152602001600073ffffffffffffffffffffffffffffffffffffffff1681525090806001815401808255809150509060018203906000526020600020906003020160009091929091909150600082015181600001556020820151816001015560408201518160020160006101000a81548173ffffffffffffffffffffffffffffffffffffffff021916908373ffffffffffffffffffffffffffffffffffffffff160217905550505050600360008154809291906001019190505550600354905090565b61111d610b35565b1515611191576040517f08c379a00000000000000000000000000000000000000000000000000000000081526004018080602001828103825260208152602001807f4f776e61626c653a2063616c6c6572206973206e6f7420746865206f776e657281525060200191505060405180910390fd5b61119a8161119d565b50565b600073ffffffffffffffffffffffffffffffffffffffff168173ffffffffffffffffffffffffffffffffffffffff1614151515611268576040517f08c379a00000000000000000000000000000000000000000000000000000000081526004018080602001828103825260268152602001807f4f776e61626c653a206e6577206f776e657220697320746865207a65726f206181526020017f646472657373000000000000000000000000000000000000000000000000000081525060400191505060405180910390fd5b8073ffffffffffffffffffffffffffffffffffffffff166000809054906101000a900473ffffffffffffffffffffffffffffffffffffffff1673ffffffffffffffffffffffffffffffffffffffff167f8be0079c531659141344cd1fd0a4f28419497f9722a3daafe3b4186f6b6457e060405160405180910390a3806000806101000a81548173ffffffffffffffffffffffffffffffffffffffff021916908373ffffffffffffffffffffffffffffffffffffffff16021790555050565b6060604051908101604052806000815260200160008152602001600073ffffffffffffffffffffffffffffffffffffffff168152509056fea165627a7a7230582062a690ead8d80c0c80151400e124bf4922ccdd71d435fc915bbcf8cf1215f0f40029",
  "source": "pragma solidity ^0.5.0;\n\nimport './Ownable.sol';\n\ncontract Lottery is Ownable {\n    mapping (uint => Bet[]) game2Bets;\n    mapping (address => uint) addr2betCount;\n    uint numGames = 0;\n\n    struct Bet {\n        uint betAmount;\n        uint betTeam;\n        address payable addr;\n    }\n\n    /* Events */\n    event SuccessfullyBet(address indexed addr, uint gameId, uint betAmount, uint team);\n    event Transfer(address indexed addr, uint transferAmount);\n\n    /* public functions */\n    function holdNewLot () public onlyOwner returns (uint) {\n        // first bet of each game is the information of the game\n        game2Bets[numGames].push(Bet(0,0,address(0)));\n        numGames++;\n        return numGames;\n    }\n\n    function bet (uint _gameId, uint _betAmount, uint _team) public payable returns (bool) {\n        uint fee = 0;\n        require(_gameId < numGames, \"Game ID out of range\");\n        require (msg.value >= _betAmount + fee, \"Not enough paid value\");\n        game2Bets[_gameId].push(Bet(_betAmount, _team, msg.sender));\n        addr2betCount[msg.sender]++;\n        emit SuccessfullyBet(msg.sender, _gameId, _betAmount, _team);\n        return true;\n    }\n\n    function payback (uint _gameId, uint _team) public onlyOwner {\n        require(_gameId < numGames, \"Game ID out of range\");\n        // set winning team\n        game2Bets[_gameId][0].betTeam = _team;\n\n        Bet[] memory bets = game2Bets[_gameId];\n        uint odd = getOdd(_gameId, _team);\n        for (uint i = 1; i < bets.length; i++) {\n            if (bets[i].betTeam == _team) {\n                address payable dest = bets[i].addr;\n                uint transferAmount = bets[i].betAmount * odd;\n                dest.transfer(transferAmount);\n                emit Transfer(dest, transferAmount);\n            }\n        }\n    }\n\n    function getOdd (uint _gameId, uint _team) public view returns (uint) {\n        uint total = getTotalAmount(_gameId);\n        uint betAmount = getTeamAmount(_gameId, _team);\n        return total / betAmount;\n    }\n\n    function getRecords () public view returns (uint[] memory, uint[] memory) {\n        uint[] memory retAmount = new uint[](addr2betCount[msg.sender]);\n        uint[] memory retTeam = new uint[](addr2betCount[msg.sender]);\n        uint index = 0;\n        for (uint i = 0; i < numGames; i++) {\n            for (uint j = 0; j < game2Bets[i].length; j++) {\n                Bet memory b = game2Bets[i][j];\n                if (b.addr == msg.sender) {\n                    retAmount[index] = b.betAmount;\n                    retTeam[index] = b.betTeam;\n                    index++;\n                }\n            }\n        }\n        return (retAmount, retTeam);\n    }\n\n    function getTotalAmount (uint _gameId) public view returns (uint) {\n        return getTeamAmount(_gameId, 1) + getTeamAmount(_gameId, 2);\n    }\n\n    function getTeamAmount (uint _gameId, uint _team) public view returns (uint) {\n        Bet[] memory bets = game2Bets[_gameId];\n        uint total = 0;\n        for (uint i = 0; i < bets.length; i++) {\n            if (bets[i].betTeam == _team){\n                total += bets[i].betAmount;\n            }\n        }\n        return total;\n    }\n\n    /* private functions */\n}",
  "sourcePath": "/Users/peach/web/blockchain/contracts/lot.sol",
  "compiler": {
    "name": "solc",
    "version": "0.5.0+commit.1d4f565a.Emscripten.clang"
  },
  "schemaVersion": "3.0.9",
  "updatedAt": "2019-05-27T09:20:27.241Z",
  "devdoc": {
    "methods": {
      "isOwner()": {
        "details": "Returns true if the caller is the current owner."
      },
      "owner()": {
        "details": "Returns the address of the current owner."
      },
      "renounceOwnership()": {
        "details": "Leaves the contract without owner. It will not be possible to call `onlyOwner` functions anymore. Can only be called by the current owner.     * > Note: Renouncing ownership will leave the contract without an owner, thereby removing any functionality that is only available to the owner."
      },
      "transferOwnership(address)": {
        "details": "Transfers ownership of the contract to a new account (`newOwner`). Can only be called by the current owner."
      }
    }
  },
  "userdoc": {
    "methods": {}
  }
}