{
  "contractName": "Lottery",
  "abi": [
    {
      "constant": false,
      "inputs": [],
      "name": "renounceOwnership",
      "outputs": [],
      "payable": false,
      "stateMutability": "nonpayable",
      "type": "function"
    },
    {
      "constant": true,
      "inputs": [],
      "name": "owner",
      "outputs": [
        {
          "name": "",
          "type": "address"
        }
      ],
      "payable": false,
      "stateMutability": "view",
      "type": "function"
    },
    {
      "constant": true,
      "inputs": [],
      "name": "isOwner",
      "outputs": [
        {
          "name": "",
          "type": "bool"
        }
      ],
      "payable": false,
      "stateMutability": "view",
      "type": "function"
    },
    {
      "constant": false,
      "inputs": [
        {
          "name": "newOwner",
          "type": "address"
        }
      ],
      "name": "transferOwnership",
      "outputs": [],
      "payable": false,
      "stateMutability": "nonpayable",
      "type": "function"
    },
    {
      "anonymous": false,
      "inputs": [
        {
          "indexed": true,
          "name": "addr",
          "type": "address"
        },
        {
          "indexed": false,
          "name": "matchId",
          "type": "uint32"
        },
        {
          "indexed": false,
          "name": "gameIndex",
          "type": "uint32"
        }
      ],
      "name": "NewGameCreated",
      "type": "event"
    },
    {
      "anonymous": false,
      "inputs": [
        {
          "indexed": true,
          "name": "addr",
          "type": "address"
        },
        {
          "indexed": false,
          "name": "gameId",
          "type": "uint32"
        },
        {
          "indexed": false,
          "name": "index",
          "type": "uint256"
        },
        {
          "indexed": false,
          "name": "betAmount",
          "type": "uint64"
        },
        {
          "indexed": false,
          "name": "team",
          "type": "uint8"
        }
      ],
      "name": "SuccessfullyBet",
      "type": "event"
    },
    {
      "anonymous": false,
      "inputs": [
        {
          "indexed": true,
          "name": "addr",
          "type": "address"
        },
        {
          "indexed": false,
          "name": "change",
          "type": "uint256"
        }
      ],
      "name": "ReturnChange",
      "type": "event"
    },
    {
      "anonymous": false,
      "inputs": [
        {
          "indexed": true,
          "name": "addr",
          "type": "address"
        },
        {
          "indexed": false,
          "name": "transferAmount",
          "type": "uint256"
        }
      ],
      "name": "Transfer",
      "type": "event"
    },
    {
      "anonymous": false,
      "inputs": [
        {
          "indexed": true,
          "name": "previousOwner",
          "type": "address"
        },
        {
          "indexed": true,
          "name": "newOwner",
          "type": "address"
        }
      ],
      "name": "OwnershipTransferred",
      "type": "event"
    },
    {
      "constant": false,
      "inputs": [
        {
          "name": "_matchId",
          "type": "uint32"
        }
      ],
      "name": "holdNewLot",
      "outputs": [
        {
          "name": "",
          "type": "uint32"
        }
      ],
      "payable": false,
      "stateMutability": "nonpayable",
      "type": "function"
    },
    {
      "constant": false,
      "inputs": [
        {
          "name": "_gameId",
          "type": "uint32"
        },
        {
          "name": "_betAmount",
          "type": "uint64"
        },
        {
          "name": "_team",
          "type": "uint8"
        }
      ],
      "name": "bet",
      "outputs": [
        {
          "name": "",
          "type": "uint256"
        },
        {
          "name": "",
          "type": "uint256"
        }
      ],
      "payable": true,
      "stateMutability": "payable",
      "type": "function"
    },
    {
      "constant": false,
      "inputs": [
        {
          "name": "_gameId",
          "type": "uint32"
        },
        {
          "name": "_team",
          "type": "uint8"
        },
        {
          "name": "_score1",
          "type": "uint64"
        },
        {
          "name": "_score2",
          "type": "uint64"
        }
      ],
      "name": "payback",
      "outputs": [],
      "payable": false,
      "stateMutability": "nonpayable",
      "type": "function"
    },
    {
      "constant": true,
      "inputs": [
        {
          "name": "_gameId",
          "type": "uint32"
        },
        {
          "name": "_index",
          "type": "uint256"
        }
      ],
      "name": "getRecord",
      "outputs": [
        {
          "name": "",
          "type": "uint256"
        },
        {
          "name": "",
          "type": "uint256"
        }
      ],
      "payable": false,
      "stateMutability": "view",
      "type": "function"
    },
    {
      "constant": true,
      "inputs": [
        {
          "name": "_gameId",
          "type": "uint32"
        }
      ],
      "name": "getGameInfo",
      "outputs": [
        {
          "name": "",
          "type": "address"
        },
        {
          "name": "",
          "type": "uint256"
        },
        {
          "name": "",
          "type": "uint256"
        },
        {
          "name": "",
          "type": "uint256"
        },
        {
          "name": "",
          "type": "uint256"
        },
        {
          "name": "",
          "type": "uint256"
        }
      ],
      "payable": false,
      "stateMutability": "view",
      "type": "function"
    },
    {
      "constant": true,
      "inputs": [
        {
          "name": "_gameId",
          "type": "uint32"
        }
      ],
      "name": "getTotalAmount",
      "outputs": [
        {
          "name": "",
          "type": "uint256"
        }
      ],
      "payable": false,
      "stateMutability": "view",
      "type": "function"
    },
    {
      "constant": true,
      "inputs": [
        {
          "name": "_gameId",
          "type": "uint32"
        },
        {
          "name": "_team",
          "type": "uint8"
        }
      ],
      "name": "getTeamAmount",
      "outputs": [
        {
          "name": "",
          "type": "uint256"
        }
      ],
      "payable": false,
      "stateMutability": "view",
      "type": "function"
    }
  ],
  "bytecode": "0x60806040526000600360006101000a81548163ffffffff021916908363ffffffff160217905550336000806101000a81548173ffffffffffffffffffffffffffffffffffffffff021916908373ffffffffffffffffffffffffffffffffffffffff1602179055506000809054906101000a900473ffffffffffffffffffffffffffffffffffffffff1673ffffffffffffffffffffffffffffffffffffffff16600073ffffffffffffffffffffffffffffffffffffffff167f8be0079c531659141344cd1fd0a4f28419497f9722a3daafe3b4186f6b6457e060405160405180910390a3611c26806100f16000396000f3fe6080604052600436106100af576000357c0100000000000000000000000000000000000000000000000000000000900463ffffffff168063028a166e146100b45780632cbe09c21461011a578063321cb0141461017b5780634b32e087146101d0578063715018a614610246578063848a23511461025d5780638da5cb5b146103015780638f32d59b14610358578063e722ddd014610387578063e9a39341146103f7578063f2fde38b14610459575b600080fd5b3480156100c057600080fd5b506100fd600480360360408110156100d757600080fd5b81019080803563ffffffff169060200190929190803590602001909291905050506104aa565b604051808381526020018281526020019250505060405180910390f35b34801561012657600080fd5b506101596004803603602081101561013d57600080fd5b81019080803563ffffffff1690602001909291905050506107a2565b604051808263ffffffff1663ffffffff16815260200191505060405180910390f35b34801561018757600080fd5b506101ba6004803603602081101561019e57600080fd5b81019080803563ffffffff1690602001909291905050506109af565b6040518082815260200191505060405180910390f35b3480156101dc57600080fd5b50610244600480360360808110156101f357600080fd5b81019080803563ffffffff169060200190929190803560ff169060200190929190803567ffffffffffffffff169060200190929190803567ffffffffffffffff1690602001909291905050506109cf565b005b34801561025257600080fd5b5061025b610ee8565b005b34801561026957600080fd5b5061029c6004803603602081101561028057600080fd5b81019080803563ffffffff169060200190929190505050611023565b604051808773ffffffffffffffffffffffffffffffffffffffff1673ffffffffffffffffffffffffffffffffffffffff168152602001868152602001858152602001848152602001838152602001828152602001965050505050505060405180910390f35b34801561030d57600080fd5b50610316611261565b604051808273ffffffffffffffffffffffffffffffffffffffff1673ffffffffffffffffffffffffffffffffffffffff16815260200191505060405180910390f35b34801561036457600080fd5b5061036d61128a565b604051808215151515815260200191505060405180910390f35b6103da6004803603606081101561039d57600080fd5b81019080803563ffffffff169060200190929190803567ffffffffffffffff169060200190929190803560ff1690602001909291905050506112e1565b604051808381526020018281526020019250505060405180910390f35b34801561040357600080fd5b506104436004803603604081101561041a57600080fd5b81019080803563ffffffff169060200190929190803560ff169060200190929190505050611805565b6040518082815260200191505060405180910390f35b34801561046557600080fd5b506104a86004803603602081101561047c57600080fd5b81019080803573ffffffffffffffffffffffffffffffffffffffff1690602001909291905050506119a4565b005b600080600360009054906101000a900463ffffffff1663ffffffff168463ffffffff16101515610542576040517f08c379a00000000000000000000000000000000000000000000000000000000081526004018080602001828103825260148152602001807f47616d65204944206f7574206f662072616e676500000000000000000000000081525060200191505060405180910390fd5b600083141515156105bb576040517f08c379a00000000000000000000000000000000000000000000000000000000081526004018080602001828103825260148152602001807f43616e6e6f7420726574726965766520696e666f00000000000000000000000081525060200191505060405180910390fd5b6105c3611bb5565b600160008663ffffffff1663ffffffff168152602001908152602001600020848154811015156105ef57fe5b90600052602060002001606060405190810160405290816000820160009054906101000a900467ffffffffffffffff1667ffffffffffffffff1667ffffffffffffffff1681526020016000820160089054906101000a900460ff1660ff1660ff1681526020016000820160099054906101000a900473ffffffffffffffffffffffffffffffffffffffff1673ffffffffffffffffffffffffffffffffffffffff1673ffffffffffffffffffffffffffffffffffffffff16815250509050806040015173ffffffffffffffffffffffffffffffffffffffff163373ffffffffffffffffffffffffffffffffffffffff16141515610779576040517f08c379a00000000000000000000000000000000000000000000000000000000081526004018080602001828103825260298152602001807f43616e6e6f74207265747269657665207265636f72643a205065726d6973736981526020017f6f6e2064656e696564000000000000000000000000000000000000000000000081525060400191505060405180910390fd5b806000015181602001518167ffffffffffffffff1691508060ff16905092509250509250929050565b600060016000600360009054906101000a900463ffffffff1663ffffffff1663ffffffff168152602001908152602001600020606060405190810160405280600067ffffffffffffffff168152602001600060ff1681526020013373ffffffffffffffffffffffffffffffffffffffff1681525090806001815401808255809150509060018203906000526020600020016000909192909190915060008201518160000160006101000a81548167ffffffffffffffff021916908367ffffffffffffffff16021790555060208201518160000160086101000a81548160ff021916908360ff16021790555060408201518160000160096101000a81548173ffffffffffffffffffffffffffffffffffffffff021916908373ffffffffffffffffffffffffffffffffffffffff1602179055505050503373ffffffffffffffffffffffffffffffffffffffff167f083118fd5f15820b5138d8c22cff484137285277a62b6c8c4c62f66e39e0cc4083600360009054906101000a900463ffffffff16604051808363ffffffff1663ffffffff1681526020018263ffffffff1663ffffffff1681526020019250505060405180910390a26003600081819054906101000a900463ffffffff168092919060010191906101000a81548163ffffffff021916908363ffffffff160217905550506001600360009054906101000a900463ffffffff16039050919050565b60006109bc826002611805565b6109c7836001611805565b019050919050565b600360009054906101000a900463ffffffff1663ffffffff168463ffffffff16101515610a64576040517f08c379a00000000000000000000000000000000000000000000000000000000081526004018080602001828103825260148152602001807f47616d65204944206f7574206f662072616e676500000000000000000000000081525060200191505060405180910390fd5b6000600160008663ffffffff1663ffffffff1681526020019081526020016000206000815481101515610a9357fe5b9060005260206000200160000160089054906101000a900460ff1660ff16141515610b26576040517f08c379a00000000000000000000000000000000000000000000000000000000081526004018080602001828103825260158152602001807f43616e206f6e6c79207061796261636b206f6e6365000000000000000000000081525060200191505060405180910390fd5b60008360ff1614151515610ba2576040517f08c379a000000000000000000000000000000000000000000000000000000000815260040180806020018281038252601a8152602001807f57696e6e696e67207465616d206e6f742073706563696669656400000000000081525060200191505060405180910390fd5b82600160008663ffffffff1663ffffffff1681526020019081526020016000206000815481101515610bd057fe5b9060005260206000200160000160086101000a81548160ff021916908360ff1602179055508060800167ffffffffffffffff168267ffffffffffffffff169060020a02600160008663ffffffff1663ffffffff1681526020019081526020016000206000815481101515610c4057fe5b9060005260206000200160000160006101000a81548167ffffffffffffffff021916908367ffffffffffffffff1602179055506060600160008663ffffffff1663ffffffff168152602001908152602001600020805480602002602001604051908101604052809291908181526020016000905b82821015610d8857838290600052602060002001606060405190810160405290816000820160009054906101000a900467ffffffffffffffff1667ffffffffffffffff1667ffffffffffffffff1681526020016000820160089054906101000a900460ff1660ff1660ff1681526020016000820160099054906101000a900473ffffffffffffffffffffffffffffffffffffffff1673ffffffffffffffffffffffffffffffffffffffff1673ffffffffffffffffffffffffffffffffffffffff168152505081526020019060010190610cb4565b5050505090506000610d99866109af565b90506000610da78787611805565b90506000600190505b8351811015610ede578660ff168482815181101515610dcb57fe5b906020019060200201516020015160ff161415610ed15760008482815181101515610df257fe5b90602001906020020151604001519050600083858785815181101515610e1457fe5b906020019060200201516000015167ffffffffffffffff1602811515610e3657fe5b0490508173ffffffffffffffffffffffffffffffffffffffff166108fc829081150290604051600060405180830381858888f19350505050158015610e7f573d6000803e3d6000fd5b508173ffffffffffffffffffffffffffffffffffffffff167f69ca02dd4edd7bf0a4abb9ed3b7af3f14778db5d61921c7dc7cd545266326de2826040518082815260200191505060405180910390a250505b8080600101915050610db0565b5050505050505050565b610ef061128a565b1515610f64576040517f08c379a00000000000000000000000000000000000000000000000000000000081526004018080602001828103825260208152602001807f4f776e61626c653a2063616c6c6572206973206e6f7420746865206f776e657281525060200191505060405180910390fd5b600073ffffffffffffffffffffffffffffffffffffffff166000809054906101000a900473ffffffffffffffffffffffffffffffffffffffff1673ffffffffffffffffffffffffffffffffffffffff167f8be0079c531659141344cd1fd0a4f28419497f9722a3daafe3b4186f6b6457e060405160405180910390a360008060006101000a81548173ffffffffffffffffffffffffffffffffffffffff021916908373ffffffffffffffffffffffffffffffffffffffff160217905550565b600080600080600080600360009054906101000a900463ffffffff1663ffffffff168763ffffffff161015156110c1576040517f08c379a00000000000000000000000000000000000000000000000000000000081526004018080602001828103825260148152602001807f47616d65204944206f7574206f662072616e676500000000000000000000000081525060200191505060405180910390fd5b6110c9611bb5565b600160008963ffffffff1663ffffffff16815260200190815260200160002060008154811015156110f657fe5b90600052602060002001606060405190810160405290816000820160009054906101000a900467ffffffffffffffff1667ffffffffffffffff1667ffffffffffffffff1681526020016000820160089054906101000a900460ff1660ff1660ff1681526020016000820160099054906101000a900473ffffffffffffffffffffffffffffffffffffffff1673ffffffffffffffffffffffffffffffffffffffff1673ffffffffffffffffffffffffffffffffffffffff1681525050905060006080826000015167ffffffffffffffff16908060020a820491505067ffffffffffffffff1690506000700100000000000000000000000000000000836000015167ffffffffffffffff1681151561120857fe5b0670ffffffffffffffffffffffffffffffffff1690508260400151836020015183836112358e6001611805565b6112408f6002611805565b8595508460ff16945098509850985098509850985050505091939550919395565b60008060009054906101000a900473ffffffffffffffffffffffffffffffffffffffff16905090565b60008060009054906101000a900473ffffffffffffffffffffffffffffffffffffffff1673ffffffffffffffffffffffffffffffffffffffff163373ffffffffffffffffffffffffffffffffffffffff1614905090565b6000806000809050600360009054906101000a900463ffffffff1663ffffffff168663ffffffff1610151561137e576040517f08c379a00000000000000000000000000000000000000000000000000000000081526004018080602001828103825260148152602001807f47616d65204944206f7574206f662072616e676500000000000000000000000081525060200191505060405180910390fd5b808567ffffffffffffffff16013410151515611402576040517f08c379a00000000000000000000000000000000000000000000000000000000081526004018080602001828103825260158152602001807f4e6f7420656e6f75676820706169642076616c7565000000000000000000000081525060200191505060405180910390fd5b6000600160008863ffffffff1663ffffffff168152602001908152602001600020600081548110151561143157fe5b9060005260206000200160000160089054906101000a900460ff1660ff161415156114c4576040517f08c379a00000000000000000000000000000000000000000000000000000000081526004018080602001828103825260168152602001807f47616d652068617320616c726561647920656e6465640000000000000000000081525060200191505060405180910390fd5b600160008763ffffffff1663ffffffff1681526020019081526020016000206060604051908101604052808767ffffffffffffffff1681526020018660ff1681526020013373ffffffffffffffffffffffffffffffffffffffff1681525090806001815401808255809150509060018203906000526020600020016000909192909190915060008201518160000160006101000a81548167ffffffffffffffff021916908367ffffffffffffffff16021790555060208201518160000160086101000a81548160ff021916908360ff16021790555060408201518160000160096101000a81548173ffffffffffffffffffffffffffffffffffffffff021916908373ffffffffffffffffffffffffffffffffffffffff160217905550505050600260003373ffffffffffffffffffffffffffffffffffffffff1673ffffffffffffffffffffffffffffffffffffffff168152602001908152602001600020600081819054906101000a900463ffffffff168092919060010191906101000a81548163ffffffff021916908363ffffffff160217905550503373ffffffffffffffffffffffffffffffffffffffff167f94432b3b58f23d81e61c06e0e3e162286011f0afcd9ca707a800907889d221028760018060008b63ffffffff1663ffffffff16815260200190815260200160002080549050038888604051808563ffffffff1663ffffffff1681526020018481526020018367ffffffffffffffff1667ffffffffffffffff1681526020018260ff1660ff16815260200194505050505060405180910390a2808567ffffffffffffffff16013411156117c9576000818667ffffffffffffffff1601340390503373ffffffffffffffffffffffffffffffffffffffff166108fc829081150290604051600060405180830381858888f19350505050158015611778573d6000803e3d6000fd5b503373ffffffffffffffffffffffffffffffffffffffff167f0849e0e7e046f845f65f593ff5bed815bd52fd50d3409eed12fae7d2837e571a826040518082815260200191505060405180910390a2505b8560018060008963ffffffff1663ffffffff16815260200190815260200160002080549050038163ffffffff1691509250925050935093915050565b60006060600160008563ffffffff1663ffffffff168152602001908152602001600020805480602002602001604051908101604052809291908181526020016000905b8282101561191c57838290600052602060002001606060405190810160405290816000820160009054906101000a900467ffffffffffffffff1667ffffffffffffffff1667ffffffffffffffff1681526020016000820160089054906101000a900460ff1660ff1660ff1681526020016000820160099054906101000a900473ffffffffffffffffffffffffffffffffffffffff1673ffffffffffffffffffffffffffffffffffffffff1673ffffffffffffffffffffffffffffffffffffffff168152505081526020019060010190611848565b50505050905060008090506000600190505b8251811015611998578460ff16838281518110151561194957fe5b906020019060200201516020015160ff16141561198b57828181518110151561196e57fe5b906020019060200201516000015167ffffffffffffffff16820191505b808060010191505061192e565b50809250505092915050565b6119ac61128a565b1515611a20576040517f08c379a00000000000000000000000000000000000000000000000000000000081526004018080602001828103825260208152602001807f4f776e61626c653a2063616c6c6572206973206e6f7420746865206f776e657281525060200191505060405180910390fd5b611a2981611a2c565b50565b600073ffffffffffffffffffffffffffffffffffffffff168173ffffffffffffffffffffffffffffffffffffffff1614151515611af7576040517f08c379a00000000000000000000000000000000000000000000000000000000081526004018080602001828103825260268152602001807f4f776e61626c653a206e6577206f776e657220697320746865207a65726f206181526020017f646472657373000000000000000000000000000000000000000000000000000081525060400191505060405180910390fd5b8073ffffffffffffffffffffffffffffffffffffffff166000809054906101000a900473ffffffffffffffffffffffffffffffffffffffff1673ffffffffffffffffffffffffffffffffffffffff167f8be0079c531659141344cd1fd0a4f28419497f9722a3daafe3b4186f6b6457e060405160405180910390a3806000806101000a81548173ffffffffffffffffffffffffffffffffffffffff021916908373ffffffffffffffffffffffffffffffffffffffff16021790555050565b606060405190810160405280600067ffffffffffffffff168152602001600060ff168152602001600073ffffffffffffffffffffffffffffffffffffffff168152509056fea165627a7a7230582096baff489ab64e50c462611537685876f7f4adbb00a61697482b6e473a97d5520029",
  "source": "pragma solidity ^0.5.0;\r\n\r\nimport './Ownable.sol';\r\n\r\ncontract Lottery is Ownable {\r\n    mapping (uint32 => Bet[]) game2Bets;\r\n    mapping (address => uint32) addr2betCount;\r\n    uint32 numGames = 0;\r\n\r\n    struct Bet {\r\n        uint64 betAmount;\r\n        uint8 betTeam;\r\n        address payable addr;\r\n    }\r\n\r\n    modifier onlyOwnerOfGame (uint32 _gameId) {\r\n        require(game2Bets[_gameId][0].addr == msg.sender, \"Only owner of game can payback\");\r\n        _;\r\n    }\r\n\r\n    /* Events */\r\n    event NewGameCreated(address indexed addr, uint32 matchId, uint32 gameIndex);\r\n    event SuccessfullyBet(address indexed addr, uint32 gameId, uint index, uint64 betAmount, uint8 team);\r\n    event ReturnChange(address indexed addr, uint change);\r\n    event Transfer(address indexed addr, uint transferAmount);\r\n\r\n    /* public functions */\r\n    function holdNewLot (uint32 _matchId) public returns (uint32) {\r\n        // first bet of each game is the information of the game\r\n        game2Bets[numGames].push(Bet(0,0,msg.sender));\r\n        emit NewGameCreated(msg.sender, _matchId, numGames);\r\n        numGames++;\r\n        return numGames - 1;\r\n    }\r\n\r\n    // Bet `amount` on `team` in game `gameId`\r\n    function bet (uint32 _gameId, uint64 _betAmount, uint8 _team) public payable returns (uint, uint) {\r\n        uint fee = 0;\r\n        require(_gameId < numGames, \"Game ID out of range\");\r\n        require (msg.value >= _betAmount + fee, \"Not enough paid value\");\r\n        require(game2Bets[_gameId][0].betTeam == 0, \"Game has already ended\");\r\n        game2Bets[_gameId].push(Bet(_betAmount, _team, msg.sender));\r\n        addr2betCount[msg.sender]++;\r\n        emit SuccessfullyBet(msg.sender, _gameId, game2Bets[_gameId].length - 1, _betAmount, _team);\r\n        if (msg.value > _betAmount + fee) {\r\n            uint change = msg.value - (_betAmount + fee);\r\n            msg.sender.transfer(change);\r\n            emit ReturnChange(msg.sender, change);\r\n        }\r\n        return (_gameId, game2Bets[_gameId].length - 1);\r\n    }\r\n\r\n    // Only used when a game is finished.\r\n    // Given gameId, winning team, scores of both teams\r\n    // contract will payback the people who wins the bet\r\n    function payback (uint32 _gameId, uint8 _team, uint64 _score1, uint64 _score2) public {\r\n        require(_gameId < numGames, \"Game ID out of range\");\r\n        require(game2Bets[_gameId][0].betTeam == 0, \"Can only payback once\");\r\n        require(_team != 0, \"Winning team not specified\");\r\n        // set winning team\r\n        game2Bets[_gameId][0].betTeam = _team;\r\n        game2Bets[_gameId][0].betAmount = _score1 << 128 + _score2;\r\n\r\n        Bet[] memory bets = game2Bets[_gameId];\r\n        // uint odd = getOdd(_gameId, _team);\r\n        uint total = getTotalAmount(_gameId);\r\n        uint team = getTeamAmount(_gameId, _team);\r\n\r\n        for (uint i = 1; i < bets.length; i++) {\r\n            if (bets[i].betTeam == _team) {\r\n                address payable dest = bets[i].addr;\r\n                uint transferAmount = bets[i].betAmount * total / team;\r\n                dest.transfer(transferAmount);\r\n                emit Transfer(dest, transferAmount);\r\n            }\r\n        }\r\n    }\r\n\r\n    // Not used due to integer division\r\n    // function getOdd (uint32 _gameId, uint8 _team) public view returns (uint) {\r\n    //     uint total = getTotalAmount(_gameId);\r\n    //     uint betAmount = getTeamAmount(_gameId, _team);\r\n    //     return total / betAmount;\r\n    // }\r\n\r\n    // Get bet record by giving `gameId` and `index` of the bet in that game\r\n    function getRecord (uint32 _gameId, uint _index) public view returns (uint, uint) {\r\n        require(_gameId < numGames, \"Game ID out of range\");\r\n        require(_index != 0, \"Cannot retrieve info\");\r\n        Bet memory user_bet = game2Bets[_gameId][_index];\r\n        require(msg.sender == user_bet.addr, \"Cannot retrieve record: Permission denied\");\r\n        return (user_bet.betAmount, user_bet.betTeam);\r\n    }\r\n\r\n    // Get game info of game `gameId`\r\n    function getGameInfo (uint32 _gameId) public view returns (address, uint, uint, uint, uint, uint) {\r\n        require(_gameId < numGames, \"Game ID out of range\");\r\n        Bet memory game_info = game2Bets[_gameId][0];\r\n        uint score1 = game_info.betAmount >> 128;\r\n        uint score2 = game_info.betAmount % (1 << 128);\r\n        return (game_info.addr, game_info.betTeam, score1, score2, getTeamAmount(_gameId, 1), getTeamAmount(_gameId, 2));\r\n    }\r\n\r\n    // Get total bet amount of game `gameId`\r\n    function getTotalAmount (uint32 _gameId) public view returns (uint) {\r\n        return getTeamAmount(_gameId, 1) + getTeamAmount(_gameId, 2);\r\n    }\r\n\r\n    // Get bet amount on `team` of game `gameId`\r\n    function getTeamAmount (uint32 _gameId, uint8 _team) public view returns (uint) {\r\n        Bet[] memory bets = game2Bets[_gameId];\r\n        uint total = 0;\r\n        for (uint i = 1; i < bets.length; i++) {\r\n            if (bets[i].betTeam == _team){\r\n                total += bets[i].betAmount;\r\n            }\r\n        }\r\n        return total;\r\n    }\r\n\r\n}",
  "sourcePath": "/mnt/c/Users/andyh0913/Blockchain-Dapp/contracts/lot.sol",
  "compiler": {
    "name": "solc",
    "version": "0.5.0+commit.1d4f565a.Emscripten.clang"
  },
  "schemaVersion": "3.0.9",
  "updatedAt": "2019-06-22T08:58:24.590Z",
  "devdoc": {
    "methods": {
      "isOwner()": {
        "details": "Returns true if the caller is the current owner.\r"
      },
      "owner()": {
        "details": "Returns the address of the current owner.\r"
      },
      "renounceOwnership()": {
        "details": "Leaves the contract without owner. It will not be possible to call\r `onlyOwner` functions anymore. Can only be called by the current owner.\r      * > Note: Renouncing ownership will leave the contract without an owner,\r thereby removing any functionality that is only available to the owner.\r"
      },
      "transferOwnership(address)": {
        "details": "Transfers ownership of the contract to a new account (`newOwner`).\r Can only be called by the current owner.\r"
      }
    }
  },
  "userdoc": {
    "methods": {}
  }
}