{
  "contractName": "Lottery",
  "abi": [
    {
      "constant": false,
      "inputs": [],
      "name": "renounceOwnership",
      "outputs": [],
      "payable": false,
      "stateMutability": "nonpayable",
      "type": "function"
    },
    {
      "constant": true,
      "inputs": [],
      "name": "owner",
      "outputs": [
        {
          "name": "",
          "type": "address"
        }
      ],
      "payable": false,
      "stateMutability": "view",
      "type": "function"
    },
    {
      "constant": true,
      "inputs": [],
      "name": "isOwner",
      "outputs": [
        {
          "name": "",
          "type": "bool"
        }
      ],
      "payable": false,
      "stateMutability": "view",
      "type": "function"
    },
    {
      "constant": false,
      "inputs": [
        {
          "name": "newOwner",
          "type": "address"
        }
      ],
      "name": "transferOwnership",
      "outputs": [],
      "payable": false,
      "stateMutability": "nonpayable",
      "type": "function"
    },
    {
      "anonymous": false,
      "inputs": [
        {
          "indexed": true,
          "name": "addr",
          "type": "address"
        },
        {
          "indexed": false,
          "name": "gameIndex",
          "type": "uint32"
        }
      ],
      "name": "NewGameCreated",
      "type": "event"
    },
    {
      "anonymous": false,
      "inputs": [
        {
          "indexed": true,
          "name": "addr",
          "type": "address"
        },
        {
          "indexed": false,
          "name": "gameId",
          "type": "uint32"
        },
        {
          "indexed": false,
          "name": "index",
          "type": "uint256"
        },
        {
          "indexed": false,
          "name": "betAmount",
          "type": "uint64"
        },
        {
          "indexed": false,
          "name": "team",
          "type": "uint8"
        }
      ],
      "name": "SuccessfullyBet",
      "type": "event"
    },
    {
      "anonymous": false,
      "inputs": [
        {
          "indexed": true,
          "name": "addr",
          "type": "address"
        },
        {
          "indexed": false,
          "name": "transferAmount",
          "type": "uint256"
        }
      ],
      "name": "Transfer",
      "type": "event"
    },
    {
      "anonymous": false,
      "inputs": [
        {
          "indexed": true,
          "name": "previousOwner",
          "type": "address"
        },
        {
          "indexed": true,
          "name": "newOwner",
          "type": "address"
        }
      ],
      "name": "OwnershipTransferred",
      "type": "event"
    },
    {
      "constant": false,
      "inputs": [],
      "name": "holdNewLot",
      "outputs": [
        {
          "name": "",
          "type": "uint32"
        }
      ],
      "payable": false,
      "stateMutability": "nonpayable",
      "type": "function"
    },
    {
      "constant": false,
      "inputs": [
        {
          "name": "_gameId",
          "type": "uint32"
        },
        {
          "name": "_betAmount",
          "type": "uint64"
        },
        {
          "name": "_team",
          "type": "uint8"
        }
      ],
      "name": "bet",
      "outputs": [
        {
          "name": "",
          "type": "uint256"
        },
        {
          "name": "",
          "type": "uint256"
        }
      ],
      "payable": true,
      "stateMutability": "payable",
      "type": "function"
    },
    {
      "constant": false,
      "inputs": [
        {
          "name": "_gameId",
          "type": "uint32"
        },
        {
          "name": "_team",
          "type": "uint8"
        },
        {
          "name": "_score1",
          "type": "uint64"
        },
        {
          "name": "_score2",
          "type": "uint64"
        }
      ],
      "name": "payback",
      "outputs": [],
      "payable": false,
      "stateMutability": "nonpayable",
      "type": "function"
    },
    {
      "constant": true,
      "inputs": [
        {
          "name": "_gameId",
          "type": "uint32"
        },
        {
          "name": "_team",
          "type": "uint8"
        }
      ],
      "name": "getOdd",
      "outputs": [
        {
          "name": "",
          "type": "uint256"
        }
      ],
      "payable": false,
      "stateMutability": "view",
      "type": "function"
    },
    {
      "constant": true,
      "inputs": [
        {
          "name": "_gameId",
          "type": "uint32"
        },
        {
          "name": "_index",
          "type": "uint256"
        }
      ],
      "name": "getRecord",
      "outputs": [
        {
          "name": "",
          "type": "uint256"
        },
        {
          "name": "",
          "type": "uint256"
        },
        {
          "name": "",
          "type": "uint256"
        },
        {
          "name": "",
          "type": "uint256"
        }
      ],
      "payable": false,
      "stateMutability": "view",
      "type": "function"
    },
    {
      "constant": true,
      "inputs": [
        {
          "name": "_gameId",
          "type": "uint32"
        }
      ],
      "name": "getTotalAmount",
      "outputs": [
        {
          "name": "",
          "type": "uint256"
        }
      ],
      "payable": false,
      "stateMutability": "view",
      "type": "function"
    },
    {
      "constant": true,
      "inputs": [
        {
          "name": "_gameId",
          "type": "uint32"
        },
        {
          "name": "_team",
          "type": "uint8"
        }
      ],
      "name": "getTeamAmount",
      "outputs": [
        {
          "name": "",
          "type": "uint256"
        }
      ],
      "payable": false,
      "stateMutability": "view",
      "type": "function"
    }
  ],
  "bytecode": "0x60806040526000600360006101000a81548163ffffffff021916908363ffffffff160217905550336000806101000a81548173ffffffffffffffffffffffffffffffffffffffff021916908373ffffffffffffffffffffffffffffffffffffffff1602179055506000809054906101000a900473ffffffffffffffffffffffffffffffffffffffff1673ffffffffffffffffffffffffffffffffffffffff16600073ffffffffffffffffffffffffffffffffffffffff167f8be0079c531659141344cd1fd0a4f28419497f9722a3daafe3b4186f6b6457e060405160405180910390a3611a6c806100f16000396000f3fe6080604052600436106100af576000357c0100000000000000000000000000000000000000000000000000000000900463ffffffff168063028a166e146100b4578063321cb014146101285780634b32e0871461017d578063715018a6146101f35780638da5cb5b1461020a5780638f32d59b14610261578063bbe9258214610290578063e722ddd0146102f2578063e9a3934114610362578063f2ddfd99146103c4578063f2fde38b146103fb575b600080fd5b3480156100c057600080fd5b506100fd600480360360408110156100d757600080fd5b81019080803563ffffffff1690602001909291908035906020019092919050505061044c565b6040518085815260200184815260200183815260200182815260200194505050505060405180910390f35b34801561013457600080fd5b506101676004803603602081101561014b57600080fd5b81019080803563ffffffff1690602001909291905050506107c8565b6040518082815260200191505060405180910390f35b34801561018957600080fd5b506101f1600480360360808110156101a057600080fd5b81019080803563ffffffff169060200190929190803560ff169060200190929190803567ffffffffffffffff169060200190929190803567ffffffffffffffff1690602001909291905050506107e8565b005b3480156101ff57600080fd5b50610208610e01565b005b34801561021657600080fd5b5061021f610f3c565b604051808273ffffffffffffffffffffffffffffffffffffffff1673ffffffffffffffffffffffffffffffffffffffff16815260200191505060405180910390f35b34801561026d57600080fd5b50610276610f65565b604051808215151515815260200191505060405180910390f35b34801561029c57600080fd5b506102dc600480360360408110156102b357600080fd5b81019080803563ffffffff169060200190929190803560ff169060200190929190505050610fbc565b6040518082815260200191505060405180910390f35b6103456004803603606081101561030857600080fd5b81019080803563ffffffff169060200190929190803567ffffffffffffffff169060200190929190803560ff169060200190929190505050610fee565b604051808381526020018281526020019250505060405180910390f35b34801561036e57600080fd5b506103ae6004803603604081101561038557600080fd5b81019080803563ffffffff169060200190929190803560ff169060200190929190505050611454565b6040518082815260200191505060405180910390f35b3480156103d057600080fd5b506103d96115f3565b604051808263ffffffff1663ffffffff16815260200191505060405180910390f35b34801561040757600080fd5b5061044a6004803603602081101561041e57600080fd5b81019080803573ffffffffffffffffffffffffffffffffffffffff1690602001909291905050506117ea565b005b600080600080600085141515156104cb576040517f08c379a00000000000000000000000000000000000000000000000000000000081526004018080602001828103825260148152602001807f43616e6e6f7420726574726965766520696e666f00000000000000000000000081525060200191505060405180910390fd5b6104d36119fb565b600160008863ffffffff1663ffffffff168152602001908152602001600020600081548110151561050057fe5b90600052602060002001606060405190810160405290816000820160009054906101000a900467ffffffffffffffff1667ffffffffffffffff1667ffffffffffffffff1681526020016000820160089054906101000a900460ff1660ff1660ff1681526020016000820160099054906101000a900473ffffffffffffffffffffffffffffffffffffffff1673ffffffffffffffffffffffffffffffffffffffff1673ffffffffffffffffffffffffffffffffffffffff168152505090506105c56119fb565b600160008963ffffffff1663ffffffff168152602001908152602001600020878154811015156105f157fe5b90600052602060002001606060405190810160405290816000820160009054906101000a900467ffffffffffffffff1667ffffffffffffffff1667ffffffffffffffff1681526020016000820160089054906101000a900460ff1660ff1660ff1681526020016000820160099054906101000a900473ffffffffffffffffffffffffffffffffffffffff1673ffffffffffffffffffffffffffffffffffffffff1673ffffffffffffffffffffffffffffffffffffffff16815250509050806040015173ffffffffffffffffffffffffffffffffffffffff163373ffffffffffffffffffffffffffffffffffffffff1614151561077b576040517f08c379a00000000000000000000000000000000000000000000000000000000081526004018080602001828103825260298152602001807f43616e6e6f74207265747269657665207265636f72643a205065726d6973736981526020017f6f6e2064656e696564000000000000000000000000000000000000000000000081525060400191505060405180910390fd5b80600001518160200151836000015184602001518367ffffffffffffffff1693508260ff1692508167ffffffffffffffff1691508060ff1690509550955095509550505092959194509250565b60006107d5826002611454565b6107e0836001611454565b019050919050565b833373ffffffffffffffffffffffffffffffffffffffff16600160008363ffffffff1663ffffffff168152602001908152602001600020600081548110151561082d57fe5b9060005260206000200160000160099054906101000a900473ffffffffffffffffffffffffffffffffffffffff1673ffffffffffffffffffffffffffffffffffffffff161415156108e6576040517f08c379a000000000000000000000000000000000000000000000000000000000815260040180806020018281038252601e8152602001807f4f6e6c79206f776e6572206f662067616d652063616e207061796261636b000081525060200191505060405180910390fd5b600360009054906101000a900463ffffffff1663ffffffff168563ffffffff1610151561097b576040517f08c379a00000000000000000000000000000000000000000000000000000000081526004018080602001828103825260148152602001807f47616d65204944206f7574206f662072616e676500000000000000000000000081525060200191505060405180910390fd5b6000600160008763ffffffff1663ffffffff16815260200190815260200160002060008154811015156109aa57fe5b9060005260206000200160000160089054906101000a900460ff1660ff1614151515610a3e576040517f08c379a00000000000000000000000000000000000000000000000000000000081526004018080602001828103825260158152602001807f43616e206f6e6c79207061796261636b206f6e6365000000000000000000000081525060200191505060405180910390fd5b60008460ff1614151515610aba576040517f08c379a000000000000000000000000000000000000000000000000000000000815260040180806020018281038252601a8152602001807f57696e6e696e67207465616d206e6f742073706563696669656400000000000081525060200191505060405180910390fd5b83600160008763ffffffff1663ffffffff1681526020019081526020016000206000815481101515610ae857fe5b9060005260206000200160000160086101000a81548160ff021916908360ff1602179055508160800167ffffffffffffffff168367ffffffffffffffff169060020a02600160008763ffffffff1663ffffffff1681526020019081526020016000206000815481101515610b5857fe5b9060005260206000200160000160006101000a81548167ffffffffffffffff021916908367ffffffffffffffff1602179055506060600160008763ffffffff1663ffffffff168152602001908152602001600020805480602002602001604051908101604052809291908181526020016000905b82821015610ca057838290600052602060002001606060405190810160405290816000820160009054906101000a900467ffffffffffffffff1667ffffffffffffffff1667ffffffffffffffff1681526020016000820160089054906101000a900460ff1660ff1660ff1681526020016000820160099054906101000a900473ffffffffffffffffffffffffffffffffffffffff1673ffffffffffffffffffffffffffffffffffffffff1673ffffffffffffffffffffffffffffffffffffffff168152505081526020019060010190610bcc565b5050505090506000610cb1876107c8565b90506000610cbf8888611454565b90506000600190505b8351811015610df6578760ff168482815181101515610ce357fe5b906020019060200201516020015160ff161415610de95760008482815181101515610d0a57fe5b90602001906020020151604001519050600083858785815181101515610d2c57fe5b906020019060200201516000015167ffffffffffffffff1602811515610d4e57fe5b0490508173ffffffffffffffffffffffffffffffffffffffff166108fc829081150290604051600060405180830381858888f19350505050158015610d97573d6000803e3d6000fd5b508173ffffffffffffffffffffffffffffffffffffffff167f69ca02dd4edd7bf0a4abb9ed3b7af3f14778db5d61921c7dc7cd545266326de2826040518082815260200191505060405180910390a250505b8080600101915050610cc8565b505050505050505050565b610e09610f65565b1515610e7d576040517f08c379a00000000000000000000000000000000000000000000000000000000081526004018080602001828103825260208152602001807f4f776e61626c653a2063616c6c6572206973206e6f7420746865206f776e657281525060200191505060405180910390fd5b600073ffffffffffffffffffffffffffffffffffffffff166000809054906101000a900473ffffffffffffffffffffffffffffffffffffffff1673ffffffffffffffffffffffffffffffffffffffff167f8be0079c531659141344cd1fd0a4f28419497f9722a3daafe3b4186f6b6457e060405160405180910390a360008060006101000a81548173ffffffffffffffffffffffffffffffffffffffff021916908373ffffffffffffffffffffffffffffffffffffffff160217905550565b60008060009054906101000a900473ffffffffffffffffffffffffffffffffffffffff16905090565b60008060009054906101000a900473ffffffffffffffffffffffffffffffffffffffff1673ffffffffffffffffffffffffffffffffffffffff163373ffffffffffffffffffffffffffffffffffffffff1614905090565b600080610fc8846107c8565b90506000610fd68585611454565b90508082811515610fe357fe5b049250505092915050565b6000806000809050600360009054906101000a900463ffffffff1663ffffffff168663ffffffff1610151561108b576040517f08c379a00000000000000000000000000000000000000000000000000000000081526004018080602001828103825260148152602001807f47616d65204944206f7574206f662072616e676500000000000000000000000081525060200191505060405180910390fd5b808567ffffffffffffffff1601341015151561110f576040517f08c379a00000000000000000000000000000000000000000000000000000000081526004018080602001828103825260158152602001807f4e6f7420656e6f75676820706169642076616c7565000000000000000000000081525060200191505060405180910390fd5b6000600160008863ffffffff1663ffffffff168152602001908152602001600020600081548110151561113e57fe5b9060005260206000200160000160089054906101000a900460ff1660ff161415156111d1576040517f08c379a00000000000000000000000000000000000000000000000000000000081526004018080602001828103825260168152602001807f47616d652068617320616c726561647920656e6465640000000000000000000081525060200191505060405180910390fd5b600160008763ffffffff1663ffffffff1681526020019081526020016000206060604051908101604052808767ffffffffffffffff1681526020018660ff1681526020013373ffffffffffffffffffffffffffffffffffffffff1681525090806001815401808255809150509060018203906000526020600020016000909192909190915060008201518160000160006101000a81548167ffffffffffffffff021916908367ffffffffffffffff16021790555060208201518160000160086101000a81548160ff021916908360ff16021790555060408201518160000160096101000a81548173ffffffffffffffffffffffffffffffffffffffff021916908373ffffffffffffffffffffffffffffffffffffffff160217905550505050600260003373ffffffffffffffffffffffffffffffffffffffff1673ffffffffffffffffffffffffffffffffffffffff168152602001908152602001600020600081819054906101000a900463ffffffff168092919060010191906101000a81548163ffffffff021916908363ffffffff160217905550503373ffffffffffffffffffffffffffffffffffffffff167f94432b3b58f23d81e61c06e0e3e162286011f0afcd9ca707a800907889d221028760018060008b63ffffffff1663ffffffff16815260200190815260200160002080549050038888604051808563ffffffff1663ffffffff1681526020018481526020018367ffffffffffffffff1667ffffffffffffffff1681526020018260ff1660ff16815260200194505050505060405180910390a28560018060008963ffffffff1663ffffffff16815260200190815260200160002080549050038163ffffffff1691509250925050935093915050565b60006060600160008563ffffffff1663ffffffff168152602001908152602001600020805480602002602001604051908101604052809291908181526020016000905b8282101561156b57838290600052602060002001606060405190810160405290816000820160009054906101000a900467ffffffffffffffff1667ffffffffffffffff1667ffffffffffffffff1681526020016000820160089054906101000a900460ff1660ff1660ff1681526020016000820160099054906101000a900473ffffffffffffffffffffffffffffffffffffffff1673ffffffffffffffffffffffffffffffffffffffff1673ffffffffffffffffffffffffffffffffffffffff168152505081526020019060010190611497565b50505050905060008090506000600190505b82518110156115e7578460ff16838281518110151561159857fe5b906020019060200201516020015160ff1614156115da5782818151811015156115bd57fe5b906020019060200201516000015167ffffffffffffffff16820191505b808060010191505061157d565b50809250505092915050565b600060016000600360009054906101000a900463ffffffff1663ffffffff1663ffffffff168152602001908152602001600020606060405190810160405280600067ffffffffffffffff168152602001600060ff1681526020013373ffffffffffffffffffffffffffffffffffffffff1681525090806001815401808255809150509060018203906000526020600020016000909192909190915060008201518160000160006101000a81548167ffffffffffffffff021916908367ffffffffffffffff16021790555060208201518160000160086101000a81548160ff021916908360ff16021790555060408201518160000160096101000a81548173ffffffffffffffffffffffffffffffffffffffff021916908373ffffffffffffffffffffffffffffffffffffffff1602179055505050503373ffffffffffffffffffffffffffffffffffffffff167f3751db1f40223f0e95e13ff68950337d64ebb3f3ed1435b0d168593b988dcad4600360009054906101000a900463ffffffff16604051808263ffffffff1663ffffffff16815260200191505060405180910390a26003600081819054906101000a900463ffffffff168092919060010191906101000a81548163ffffffff021916908363ffffffff160217905550506001600360009054906101000a900463ffffffff1603905090565b6117f2610f65565b1515611866576040517f08c379a00000000000000000000000000000000000000000000000000000000081526004018080602001828103825260208152602001807f4f776e61626c653a2063616c6c6572206973206e6f7420746865206f776e657281525060200191505060405180910390fd5b61186f81611872565b50565b600073ffffffffffffffffffffffffffffffffffffffff168173ffffffffffffffffffffffffffffffffffffffff161415151561193d576040517f08c379a00000000000000000000000000000000000000000000000000000000081526004018080602001828103825260268152602001807f4f776e61626c653a206e6577206f776e657220697320746865207a65726f206181526020017f646472657373000000000000000000000000000000000000000000000000000081525060400191505060405180910390fd5b8073ffffffffffffffffffffffffffffffffffffffff166000809054906101000a900473ffffffffffffffffffffffffffffffffffffffff1673ffffffffffffffffffffffffffffffffffffffff167f8be0079c531659141344cd1fd0a4f28419497f9722a3daafe3b4186f6b6457e060405160405180910390a3806000806101000a81548173ffffffffffffffffffffffffffffffffffffffff021916908373ffffffffffffffffffffffffffffffffffffffff16021790555050565b606060405190810160405280600067ffffffffffffffff168152602001600060ff168152602001600073ffffffffffffffffffffffffffffffffffffffff168152509056fea165627a7a72305820e093cbc015f702f5e03a9322ee44413d3fa36d8b64a5f55f31968debebf9e42d0029",
  "source": "pragma solidity ^0.5.0;\r\n\r\nimport './Ownable.sol';\r\n\r\ncontract Lottery is Ownable {\r\n    mapping (uint32 => Bet[]) game2Bets;\r\n    mapping (address => uint32) addr2betCount;\r\n    uint32 numGames = 0;\r\n\r\n    struct Bet {\r\n        uint64 betAmount;\r\n        uint8 betTeam;\r\n        address payable addr;\r\n    }\r\n\r\n    modifier onlyOwnerOfGame (uint32 _gameId) {\r\n        require(game2Bets[_gameId][0].addr == msg.sender, \"Only owner of game can payback\");\r\n        _;\r\n    }\r\n\r\n    /* Events */\r\n    event NewGameCreated(address indexed addr, uint32 gameIndex);\r\n    event SuccessfullyBet(address indexed addr, uint32 gameId, uint index, uint64 betAmount, uint8 team);\r\n    event Transfer(address indexed addr, uint transferAmount);\r\n\r\n    /* public functions */\r\n    function holdNewLot () public returns (uint32) {\r\n        // first bet of each game is the information of the game\r\n        game2Bets[numGames].push(Bet(0,0,msg.sender));\r\n        emit NewGameCreated(msg.sender, numGames);\r\n        numGames++;\r\n        return numGames - 1;\r\n    }\r\n\r\n    function bet (uint32 _gameId, uint64 _betAmount, uint8 _team) public payable returns (uint, uint) {\r\n        uint fee = 0;\r\n        require(_gameId < numGames, \"Game ID out of range\");\r\n        require (msg.value >= _betAmount + fee, \"Not enough paid value\");\r\n        require(game2Bets[_gameId][0].betTeam == 0, \"Game has already ended\");\r\n        game2Bets[_gameId].push(Bet(_betAmount, _team, msg.sender));\r\n        addr2betCount[msg.sender]++;\r\n        emit SuccessfullyBet(msg.sender, _gameId, game2Bets[_gameId].length - 1, _betAmount, _team);\r\n        return (_gameId, game2Bets[_gameId].length - 1);\r\n    }\r\n\r\n    function payback (uint32 _gameId, uint8 _team, uint64 _score1, uint64 _score2) public onlyOwnerOfGame(_gameId) {\r\n        require(_gameId < numGames, \"Game ID out of range\");\r\n        require(game2Bets[_gameId][0].betTeam != 0, \"Can only payback once\");\r\n        require(_team != 0, \"Winning team not specified\");\r\n        // set winning team\r\n        game2Bets[_gameId][0].betTeam = _team;\r\n        game2Bets[_gameId][0].betAmount = _score1 << 128 + _score2;\r\n\r\n        Bet[] memory bets = game2Bets[_gameId];\r\n        // uint odd = getOdd(_gameId, _team);\r\n        uint total = getTotalAmount(_gameId);\r\n        uint team = getTeamAmount(_gameId, _team);\r\n\r\n        for (uint i = 1; i < bets.length; i++) {\r\n            if (bets[i].betTeam == _team) {\r\n                address payable dest = bets[i].addr;\r\n                uint transferAmount = bets[i].betAmount * total / team;\r\n                dest.transfer(transferAmount);\r\n                emit Transfer(dest, transferAmount);\r\n            }\r\n        }\r\n    }\r\n\r\n    function getOdd (uint32 _gameId, uint8 _team) public view returns (uint) {\r\n        uint total = getTotalAmount(_gameId);\r\n        uint betAmount = getTeamAmount(_gameId, _team);\r\n        return total / betAmount;\r\n    }\r\n\r\n    function getRecord (uint32 _gameId, uint _index) public view returns (uint, uint, uint, uint) {\r\n/*\r\n        uint[] memory retAmount = new uint[](addr2betCount[msg.sender]);\r\n        uint[] memory retTeam = new uint[](addr2betCount[msg.sender]);\r\n        uint index = 0;\r\n        for (uint32 i = 0; i < numGames; i++) {\r\n            for (uint j = 0; j < game2Bets[i].length; j++) {\r\n                Bet memory b = game2Bets[i][j];\r\n                if (b.addr == msg.sender) {\r\n                    retAmount[index] = b.betAmount;\r\n                    retTeam[index] = b.betTeam;\r\n                    index++;\r\n                }\r\n            }\r\n        }\r\n        return (retAmount, retTeam);\r\n*/\r\n        require(_index != 0, \"Cannot retrieve info\");\r\n        Bet memory game_info = game2Bets[_gameId][0];\r\n        Bet memory user_bet = game2Bets[_gameId][_index];\r\n        require(msg.sender == user_bet.addr, \"Cannot retrieve record: Permission denied\");\r\n        return (user_bet.betAmount, user_bet.betTeam, game_info.betAmount, game_info.betTeam);\r\n    }\r\n\r\n    function getTotalAmount (uint32 _gameId) public view returns (uint) {\r\n        return getTeamAmount(_gameId, 1) + getTeamAmount(_gameId, 2);\r\n    }\r\n\r\n    function getTeamAmount (uint32 _gameId, uint8 _team) public view returns (uint) {\r\n        Bet[] memory bets = game2Bets[_gameId];\r\n        uint total = 0;\r\n        for (uint i = 1; i < bets.length; i++) {\r\n            if (bets[i].betTeam == _team){\r\n                total += bets[i].betAmount;\r\n            }\r\n        }\r\n        return total;\r\n    }\r\n\r\n    /* private functions */\r\n}",
  "sourcePath": "C:/Users/andyh0913/Blockchain-Dapp/contracts/lot.sol",
  "compiler": {
    "name": "solc",
    "version": "0.5.0+commit.1d4f565a.Emscripten.clang"
  },
  "schemaVersion": "3.0.9",
  "updatedAt": "2019-06-01T09:43:26.930Z",
  "devdoc": {
    "methods": {
      "isOwner()": {
        "details": "Returns true if the caller is the current owner.\r"
      },
      "owner()": {
        "details": "Returns the address of the current owner.\r"
      },
      "renounceOwnership()": {
        "details": "Leaves the contract without owner. It will not be possible to call\r `onlyOwner` functions anymore. Can only be called by the current owner.\r      * > Note: Renouncing ownership will leave the contract without an owner,\r thereby removing any functionality that is only available to the owner.\r"
      },
      "transferOwnership(address)": {
        "details": "Transfers ownership of the contract to a new account (`newOwner`).\r Can only be called by the current owner.\r"
      }
    }
  },
  "userdoc": {
    "methods": {}
  }
}