{
  "contractName": "Lottery",
  "abi": [
    {
      "constant": false,
      "inputs": [],
      "name": "renounceOwnership",
      "outputs": [],
      "payable": false,
      "stateMutability": "nonpayable",
      "type": "function"
    },
    {
      "constant": true,
      "inputs": [],
      "name": "owner",
      "outputs": [
        {
          "name": "",
          "type": "address"
        }
      ],
      "payable": false,
      "stateMutability": "view",
      "type": "function"
    },
    {
      "constant": true,
      "inputs": [],
      "name": "isOwner",
      "outputs": [
        {
          "name": "",
          "type": "bool"
        }
      ],
      "payable": false,
      "stateMutability": "view",
      "type": "function"
    },
    {
      "constant": false,
      "inputs": [
        {
          "name": "newOwner",
          "type": "address"
        }
      ],
      "name": "transferOwnership",
      "outputs": [],
      "payable": false,
      "stateMutability": "nonpayable",
      "type": "function"
    },
    {
      "anonymous": false,
      "inputs": [
        {
          "indexed": true,
          "name": "addr",
          "type": "address"
        },
        {
          "indexed": false,
          "name": "gameIndex",
          "type": "uint32"
        }
      ],
      "name": "NewGameCreated",
      "type": "event"
    },
    {
      "anonymous": false,
      "inputs": [
        {
          "indexed": true,
          "name": "addr",
          "type": "address"
        },
        {
          "indexed": false,
          "name": "gameId",
          "type": "uint32"
        },
        {
          "indexed": false,
          "name": "index",
          "type": "uint256"
        },
        {
          "indexed": false,
          "name": "betAmount",
          "type": "uint64"
        },
        {
          "indexed": false,
          "name": "team",
          "type": "uint8"
        }
      ],
      "name": "SuccessfullyBet",
      "type": "event"
    },
    {
      "anonymous": false,
      "inputs": [
        {
          "indexed": true,
          "name": "addr",
          "type": "address"
        },
        {
          "indexed": false,
          "name": "change",
          "type": "uint256"
        }
      ],
      "name": "ReturnChange",
      "type": "event"
    },
    {
      "anonymous": false,
      "inputs": [
        {
          "indexed": true,
          "name": "addr",
          "type": "address"
        },
        {
          "indexed": false,
          "name": "transferAmount",
          "type": "uint256"
        }
      ],
      "name": "Transfer",
      "type": "event"
    },
    {
      "anonymous": false,
      "inputs": [
        {
          "indexed": true,
          "name": "previousOwner",
          "type": "address"
        },
        {
          "indexed": true,
          "name": "newOwner",
          "type": "address"
        }
      ],
      "name": "OwnershipTransferred",
      "type": "event"
    },
    {
      "constant": false,
      "inputs": [],
      "name": "holdNewLot",
      "outputs": [
        {
          "name": "",
          "type": "uint32"
        }
      ],
      "payable": false,
      "stateMutability": "nonpayable",
      "type": "function"
    },
    {
      "constant": false,
      "inputs": [
        {
          "name": "_gameId",
          "type": "uint32"
        },
        {
          "name": "_betAmount",
          "type": "uint64"
        },
        {
          "name": "_team",
          "type": "uint8"
        }
      ],
      "name": "bet",
      "outputs": [
        {
          "name": "",
          "type": "uint256"
        },
        {
          "name": "",
          "type": "uint256"
        }
      ],
      "payable": true,
      "stateMutability": "payable",
      "type": "function"
    },
    {
      "constant": false,
      "inputs": [
        {
          "name": "_gameId",
          "type": "uint32"
        },
        {
          "name": "_team",
          "type": "uint8"
        },
        {
          "name": "_score1",
          "type": "uint64"
        },
        {
          "name": "_score2",
          "type": "uint64"
        }
      ],
      "name": "payback",
      "outputs": [],
      "payable": false,
      "stateMutability": "nonpayable",
      "type": "function"
    },
    {
      "constant": true,
      "inputs": [
        {
          "name": "_gameId",
          "type": "uint32"
        },
        {
          "name": "_index",
          "type": "uint256"
        }
      ],
      "name": "getRecord",
      "outputs": [
        {
          "name": "",
          "type": "uint256"
        },
        {
          "name": "",
          "type": "uint256"
        }
      ],
      "payable": false,
      "stateMutability": "view",
      "type": "function"
    },
    {
      "constant": true,
      "inputs": [
        {
          "name": "_gameId",
          "type": "uint32"
        }
      ],
      "name": "getGameInfo",
      "outputs": [
        {
          "name": "",
          "type": "address"
        },
        {
          "name": "",
          "type": "uint256"
        },
        {
          "name": "",
          "type": "uint256"
        },
        {
          "name": "",
          "type": "uint256"
        },
        {
          "name": "",
          "type": "uint256"
        },
        {
          "name": "",
          "type": "uint256"
        }
      ],
      "payable": false,
      "stateMutability": "view",
      "type": "function"
    },
    {
      "constant": true,
      "inputs": [
        {
          "name": "_gameId",
          "type": "uint32"
        }
      ],
      "name": "getTotalAmount",
      "outputs": [
        {
          "name": "",
          "type": "uint256"
        }
      ],
      "payable": false,
      "stateMutability": "view",
      "type": "function"
    },
    {
      "constant": true,
      "inputs": [
        {
          "name": "_gameId",
          "type": "uint32"
        },
        {
          "name": "_team",
          "type": "uint8"
        }
      ],
      "name": "getTeamAmount",
      "outputs": [
        {
          "name": "",
          "type": "uint256"
        }
      ],
      "payable": false,
      "stateMutability": "view",
      "type": "function"
    }
  ],
  "bytecode": "0x60806040526000600360006101000a81548163ffffffff021916908363ffffffff160217905550336000806101000a81548173ffffffffffffffffffffffffffffffffffffffff021916908373ffffffffffffffffffffffffffffffffffffffff1602179055506000809054906101000a900473ffffffffffffffffffffffffffffffffffffffff1673ffffffffffffffffffffffffffffffffffffffff16600073ffffffffffffffffffffffffffffffffffffffff167f8be0079c531659141344cd1fd0a4f28419497f9722a3daafe3b4186f6b6457e060405160405180910390a3611be6806100f16000396000f3fe6080604052600436106100af576000357c0100000000000000000000000000000000000000000000000000000000900463ffffffff168063028a166e146100b4578063321cb0141461011a5780634b32e0871461016f578063715018a6146101e5578063848a2351146101fc5780638da5cb5b146102a05780638f32d59b146102f7578063e722ddd014610326578063e9a3934114610396578063f2ddfd99146103f8578063f2fde38b1461042f575b600080fd5b3480156100c057600080fd5b506100fd600480360360408110156100d757600080fd5b81019080803563ffffffff16906020019092919080359060200190929190505050610480565b604051808381526020018281526020019250505060405180910390f35b34801561012657600080fd5b506101596004803603602081101561013d57600080fd5b81019080803563ffffffff169060200190929190505050610778565b6040518082815260200191505060405180910390f35b34801561017b57600080fd5b506101e36004803603608081101561019257600080fd5b81019080803563ffffffff169060200190929190803560ff169060200190929190803567ffffffffffffffff169060200190929190803567ffffffffffffffff169060200190929190505050610798565b005b3480156101f157600080fd5b506101fa610cb1565b005b34801561020857600080fd5b5061023b6004803603602081101561021f57600080fd5b81019080803563ffffffff169060200190929190505050610dec565b604051808773ffffffffffffffffffffffffffffffffffffffff1673ffffffffffffffffffffffffffffffffffffffff168152602001868152602001858152602001848152602001838152602001828152602001965050505050505060405180910390f35b3480156102ac57600080fd5b506102b561102a565b604051808273ffffffffffffffffffffffffffffffffffffffff1673ffffffffffffffffffffffffffffffffffffffff16815260200191505060405180910390f35b34801561030357600080fd5b5061030c611053565b604051808215151515815260200191505060405180910390f35b6103796004803603606081101561033c57600080fd5b81019080803563ffffffff169060200190929190803567ffffffffffffffff169060200190929190803560ff1690602001909291905050506110aa565b604051808381526020018281526020019250505060405180910390f35b3480156103a257600080fd5b506103e2600480360360408110156103b957600080fd5b81019080803563ffffffff169060200190929190803560ff1690602001909291905050506115ce565b6040518082815260200191505060405180910390f35b34801561040457600080fd5b5061040d61176d565b604051808263ffffffff1663ffffffff16815260200191505060405180910390f35b34801561043b57600080fd5b5061047e6004803603602081101561045257600080fd5b81019080803573ffffffffffffffffffffffffffffffffffffffff169060200190929190505050611964565b005b600080600360009054906101000a900463ffffffff1663ffffffff168463ffffffff16101515610518576040517f08c379a00000000000000000000000000000000000000000000000000000000081526004018080602001828103825260148152602001807f47616d65204944206f7574206f662072616e676500000000000000000000000081525060200191505060405180910390fd5b60008314151515610591576040517f08c379a00000000000000000000000000000000000000000000000000000000081526004018080602001828103825260148152602001807f43616e6e6f7420726574726965766520696e666f00000000000000000000000081525060200191505060405180910390fd5b610599611b75565b600160008663ffffffff1663ffffffff168152602001908152602001600020848154811015156105c557fe5b90600052602060002001606060405190810160405290816000820160009054906101000a900467ffffffffffffffff1667ffffffffffffffff1667ffffffffffffffff1681526020016000820160089054906101000a900460ff1660ff1660ff1681526020016000820160099054906101000a900473ffffffffffffffffffffffffffffffffffffffff1673ffffffffffffffffffffffffffffffffffffffff1673ffffffffffffffffffffffffffffffffffffffff16815250509050806040015173ffffffffffffffffffffffffffffffffffffffff163373ffffffffffffffffffffffffffffffffffffffff1614151561074f576040517f08c379a00000000000000000000000000000000000000000000000000000000081526004018080602001828103825260298152602001807f43616e6e6f74207265747269657665207265636f72643a205065726d6973736981526020017f6f6e2064656e696564000000000000000000000000000000000000000000000081525060400191505060405180910390fd5b806000015181602001518167ffffffffffffffff1691508060ff16905092509250509250929050565b60006107858260026115ce565b6107908360016115ce565b019050919050565b600360009054906101000a900463ffffffff1663ffffffff168463ffffffff1610151561082d576040517f08c379a00000000000000000000000000000000000000000000000000000000081526004018080602001828103825260148152602001807f47616d65204944206f7574206f662072616e676500000000000000000000000081525060200191505060405180910390fd5b6000600160008663ffffffff1663ffffffff168152602001908152602001600020600081548110151561085c57fe5b9060005260206000200160000160089054906101000a900460ff1660ff161415156108ef576040517f08c379a00000000000000000000000000000000000000000000000000000000081526004018080602001828103825260158152602001807f43616e206f6e6c79207061796261636b206f6e6365000000000000000000000081525060200191505060405180910390fd5b60008360ff161415151561096b576040517f08c379a000000000000000000000000000000000000000000000000000000000815260040180806020018281038252601a8152602001807f57696e6e696e67207465616d206e6f742073706563696669656400000000000081525060200191505060405180910390fd5b82600160008663ffffffff1663ffffffff168152602001908152602001600020600081548110151561099957fe5b9060005260206000200160000160086101000a81548160ff021916908360ff1602179055508060800167ffffffffffffffff168267ffffffffffffffff169060020a02600160008663ffffffff1663ffffffff1681526020019081526020016000206000815481101515610a0957fe5b9060005260206000200160000160006101000a81548167ffffffffffffffff021916908367ffffffffffffffff1602179055506060600160008663ffffffff1663ffffffff168152602001908152602001600020805480602002602001604051908101604052809291908181526020016000905b82821015610b5157838290600052602060002001606060405190810160405290816000820160009054906101000a900467ffffffffffffffff1667ffffffffffffffff1667ffffffffffffffff1681526020016000820160089054906101000a900460ff1660ff1660ff1681526020016000820160099054906101000a900473ffffffffffffffffffffffffffffffffffffffff1673ffffffffffffffffffffffffffffffffffffffff1673ffffffffffffffffffffffffffffffffffffffff168152505081526020019060010190610a7d565b5050505090506000610b6286610778565b90506000610b7087876115ce565b90506000600190505b8351811015610ca7578660ff168482815181101515610b9457fe5b906020019060200201516020015160ff161415610c9a5760008482815181101515610bbb57fe5b90602001906020020151604001519050600083858785815181101515610bdd57fe5b906020019060200201516000015167ffffffffffffffff1602811515610bff57fe5b0490508173ffffffffffffffffffffffffffffffffffffffff166108fc829081150290604051600060405180830381858888f19350505050158015610c48573d6000803e3d6000fd5b508173ffffffffffffffffffffffffffffffffffffffff167f69ca02dd4edd7bf0a4abb9ed3b7af3f14778db5d61921c7dc7cd545266326de2826040518082815260200191505060405180910390a250505b8080600101915050610b79565b5050505050505050565b610cb9611053565b1515610d2d576040517f08c379a00000000000000000000000000000000000000000000000000000000081526004018080602001828103825260208152602001807f4f776e61626c653a2063616c6c6572206973206e6f7420746865206f776e657281525060200191505060405180910390fd5b600073ffffffffffffffffffffffffffffffffffffffff166000809054906101000a900473ffffffffffffffffffffffffffffffffffffffff1673ffffffffffffffffffffffffffffffffffffffff167f8be0079c531659141344cd1fd0a4f28419497f9722a3daafe3b4186f6b6457e060405160405180910390a360008060006101000a81548173ffffffffffffffffffffffffffffffffffffffff021916908373ffffffffffffffffffffffffffffffffffffffff160217905550565b600080600080600080600360009054906101000a900463ffffffff1663ffffffff168763ffffffff16101515610e8a576040517f08c379a00000000000000000000000000000000000000000000000000000000081526004018080602001828103825260148152602001807f47616d65204944206f7574206f662072616e676500000000000000000000000081525060200191505060405180910390fd5b610e92611b75565b600160008963ffffffff1663ffffffff1681526020019081526020016000206000815481101515610ebf57fe5b90600052602060002001606060405190810160405290816000820160009054906101000a900467ffffffffffffffff1667ffffffffffffffff1667ffffffffffffffff1681526020016000820160089054906101000a900460ff1660ff1660ff1681526020016000820160099054906101000a900473ffffffffffffffffffffffffffffffffffffffff1673ffffffffffffffffffffffffffffffffffffffff1673ffffffffffffffffffffffffffffffffffffffff1681525050905060006080826000015167ffffffffffffffff16908060020a820491505067ffffffffffffffff1690506000700100000000000000000000000000000000836000015167ffffffffffffffff16811515610fd157fe5b0670ffffffffffffffffffffffffffffffffff169050826040015183602001518383610ffe8e60016115ce565b6110098f60026115ce565b8595508460ff16945098509850985098509850985050505091939550919395565b60008060009054906101000a900473ffffffffffffffffffffffffffffffffffffffff16905090565b60008060009054906101000a900473ffffffffffffffffffffffffffffffffffffffff1673ffffffffffffffffffffffffffffffffffffffff163373ffffffffffffffffffffffffffffffffffffffff1614905090565b6000806000809050600360009054906101000a900463ffffffff1663ffffffff168663ffffffff16101515611147576040517f08c379a00000000000000000000000000000000000000000000000000000000081526004018080602001828103825260148152602001807f47616d65204944206f7574206f662072616e676500000000000000000000000081525060200191505060405180910390fd5b808567ffffffffffffffff160134101515156111cb576040517f08c379a00000000000000000000000000000000000000000000000000000000081526004018080602001828103825260158152602001807f4e6f7420656e6f75676820706169642076616c7565000000000000000000000081525060200191505060405180910390fd5b6000600160008863ffffffff1663ffffffff16815260200190815260200160002060008154811015156111fa57fe5b9060005260206000200160000160089054906101000a900460ff1660ff1614151561128d576040517f08c379a00000000000000000000000000000000000000000000000000000000081526004018080602001828103825260168152602001807f47616d652068617320616c726561647920656e6465640000000000000000000081525060200191505060405180910390fd5b600160008763ffffffff1663ffffffff1681526020019081526020016000206060604051908101604052808767ffffffffffffffff1681526020018660ff1681526020013373ffffffffffffffffffffffffffffffffffffffff1681525090806001815401808255809150509060018203906000526020600020016000909192909190915060008201518160000160006101000a81548167ffffffffffffffff021916908367ffffffffffffffff16021790555060208201518160000160086101000a81548160ff021916908360ff16021790555060408201518160000160096101000a81548173ffffffffffffffffffffffffffffffffffffffff021916908373ffffffffffffffffffffffffffffffffffffffff160217905550505050600260003373ffffffffffffffffffffffffffffffffffffffff1673ffffffffffffffffffffffffffffffffffffffff168152602001908152602001600020600081819054906101000a900463ffffffff168092919060010191906101000a81548163ffffffff021916908363ffffffff160217905550503373ffffffffffffffffffffffffffffffffffffffff167f94432b3b58f23d81e61c06e0e3e162286011f0afcd9ca707a800907889d221028760018060008b63ffffffff1663ffffffff16815260200190815260200160002080549050038888604051808563ffffffff1663ffffffff1681526020018481526020018367ffffffffffffffff1667ffffffffffffffff1681526020018260ff1660ff16815260200194505050505060405180910390a2808567ffffffffffffffff1601341115611592576000818667ffffffffffffffff1601340390503373ffffffffffffffffffffffffffffffffffffffff166108fc829081150290604051600060405180830381858888f19350505050158015611541573d6000803e3d6000fd5b503373ffffffffffffffffffffffffffffffffffffffff167f0849e0e7e046f845f65f593ff5bed815bd52fd50d3409eed12fae7d2837e571a826040518082815260200191505060405180910390a2505b8560018060008963ffffffff1663ffffffff16815260200190815260200160002080549050038163ffffffff1691509250925050935093915050565b60006060600160008563ffffffff1663ffffffff168152602001908152602001600020805480602002602001604051908101604052809291908181526020016000905b828210156116e557838290600052602060002001606060405190810160405290816000820160009054906101000a900467ffffffffffffffff1667ffffffffffffffff1667ffffffffffffffff1681526020016000820160089054906101000a900460ff1660ff1660ff1681526020016000820160099054906101000a900473ffffffffffffffffffffffffffffffffffffffff1673ffffffffffffffffffffffffffffffffffffffff1673ffffffffffffffffffffffffffffffffffffffff168152505081526020019060010190611611565b50505050905060008090506000600190505b8251811015611761578460ff16838281518110151561171257fe5b906020019060200201516020015160ff16141561175457828181518110151561173757fe5b906020019060200201516000015167ffffffffffffffff16820191505b80806001019150506116f7565b50809250505092915050565b600060016000600360009054906101000a900463ffffffff1663ffffffff1663ffffffff168152602001908152602001600020606060405190810160405280600067ffffffffffffffff168152602001600060ff1681526020013373ffffffffffffffffffffffffffffffffffffffff1681525090806001815401808255809150509060018203906000526020600020016000909192909190915060008201518160000160006101000a81548167ffffffffffffffff021916908367ffffffffffffffff16021790555060208201518160000160086101000a81548160ff021916908360ff16021790555060408201518160000160096101000a81548173ffffffffffffffffffffffffffffffffffffffff021916908373ffffffffffffffffffffffffffffffffffffffff1602179055505050503373ffffffffffffffffffffffffffffffffffffffff167f3751db1f40223f0e95e13ff68950337d64ebb3f3ed1435b0d168593b988dcad4600360009054906101000a900463ffffffff16604051808263ffffffff1663ffffffff16815260200191505060405180910390a26003600081819054906101000a900463ffffffff168092919060010191906101000a81548163ffffffff021916908363ffffffff160217905550506001600360009054906101000a900463ffffffff1603905090565b61196c611053565b15156119e0576040517f08c379a00000000000000000000000000000000000000000000000000000000081526004018080602001828103825260208152602001807f4f776e61626c653a2063616c6c6572206973206e6f7420746865206f776e657281525060200191505060405180910390fd5b6119e9816119ec565b50565b600073ffffffffffffffffffffffffffffffffffffffff168173ffffffffffffffffffffffffffffffffffffffff1614151515611ab7576040517f08c379a00000000000000000000000000000000000000000000000000000000081526004018080602001828103825260268152602001807f4f776e61626c653a206e6577206f776e657220697320746865207a65726f206181526020017f646472657373000000000000000000000000000000000000000000000000000081525060400191505060405180910390fd5b8073ffffffffffffffffffffffffffffffffffffffff166000809054906101000a900473ffffffffffffffffffffffffffffffffffffffff1673ffffffffffffffffffffffffffffffffffffffff167f8be0079c531659141344cd1fd0a4f28419497f9722a3daafe3b4186f6b6457e060405160405180910390a3806000806101000a81548173ffffffffffffffffffffffffffffffffffffffff021916908373ffffffffffffffffffffffffffffffffffffffff16021790555050565b606060405190810160405280600067ffffffffffffffff168152602001600060ff168152602001600073ffffffffffffffffffffffffffffffffffffffff168152509056fea165627a7a7230582027a56b8581a9e85e97256bd961bd847644a87f5d6d39ffe7fd91c3df3b2b1b500029",
  "source": "pragma solidity ^0.5.0;\n\nimport './Ownable.sol';\n\ncontract Lottery is Ownable {\n    mapping (uint32 => Bet[]) game2Bets;\n    mapping (address => uint32) addr2betCount;\n    uint32 numGames = 0;\n\n    struct Bet {\n        uint64 betAmount;\n        uint8 betTeam;\n        address payable addr;\n    }\n\n    modifier onlyOwnerOfGame (uint32 _gameId) {\n        require(game2Bets[_gameId][0].addr == msg.sender, \"Only owner of game can payback\");\n        _;\n    }\n\n    /* Events */\n    event NewGameCreated(address indexed addr, uint32 gameIndex);\n    event SuccessfullyBet(address indexed addr, uint32 gameId, uint index, uint64 betAmount, uint8 team);\n    event ReturnChange(address indexed addr, uint change);\n    event Transfer(address indexed addr, uint transferAmount);\n\n    /* public functions */\n    function holdNewLot () public returns (uint32) {\n        // first bet of each game is the information of the game\n        game2Bets[numGames].push(Bet(0,0,msg.sender));\n        emit NewGameCreated(msg.sender, numGames);\n        numGames++;\n        return numGames - 1;\n    }\n\n    // Bet `amount` on `team` in game `gameId`\n    function bet (uint32 _gameId, uint64 _betAmount, uint8 _team) public payable returns (uint, uint) {\n        uint fee = 0;\n        require(_gameId < numGames, \"Game ID out of range\");\n        require (msg.value >= _betAmount + fee, \"Not enough paid value\");\n        require(game2Bets[_gameId][0].betTeam == 0, \"Game has already ended\");\n        game2Bets[_gameId].push(Bet(_betAmount, _team, msg.sender));\n        addr2betCount[msg.sender]++;\n        emit SuccessfullyBet(msg.sender, _gameId, game2Bets[_gameId].length - 1, _betAmount, _team);\n        if (msg.value > _betAmount + fee) {\n            uint change = msg.value - (_betAmount + fee);\n            msg.sender.transfer(change);\n            emit ReturnChange(msg.sender, change);\n        }\n        return (_gameId, game2Bets[_gameId].length - 1);\n    }\n\n    // Only used when a game is finished.\n    // Given gameId, winning team, scores of both teams\n    // contract will payback the people who wins the bet\n    function payback (uint32 _gameId, uint8 _team, uint64 _score1, uint64 _score2) public {\n        require(_gameId < numGames, \"Game ID out of range\");\n        require(game2Bets[_gameId][0].betTeam == 0, \"Can only payback once\");\n        require(_team != 0, \"Winning team not specified\");\n        // set winning team\n        game2Bets[_gameId][0].betTeam = _team;\n        game2Bets[_gameId][0].betAmount = _score1 << 128 + _score2;\n\n        Bet[] memory bets = game2Bets[_gameId];\n        // uint odd = getOdd(_gameId, _team);\n        uint total = getTotalAmount(_gameId);\n        uint team = getTeamAmount(_gameId, _team);\n\n        for (uint i = 1; i < bets.length; i++) {\n            if (bets[i].betTeam == _team) {\n                address payable dest = bets[i].addr;\n                uint transferAmount = bets[i].betAmount * total / team;\n                dest.transfer(transferAmount);\n                emit Transfer(dest, transferAmount);\n            }\n        }\n    }\n\n    // Not used due to integer division\n    // function getOdd (uint32 _gameId, uint8 _team) public view returns (uint) {\n    //     uint total = getTotalAmount(_gameId);\n    //     uint betAmount = getTeamAmount(_gameId, _team);\n    //     return total / betAmount;\n    // }\n\n    // Get bet record by giving `gameId` and `index` of the bet in that game\n    function getRecord (uint32 _gameId, uint _index) public view returns (uint, uint) {\n        require(_gameId < numGames, \"Game ID out of range\");\n        require(_index != 0, \"Cannot retrieve info\");\n        Bet memory user_bet = game2Bets[_gameId][_index];\n        require(msg.sender == user_bet.addr, \"Cannot retrieve record: Permission denied\");\n        return (user_bet.betAmount, user_bet.betTeam);\n    }\n\n    // Get game info of game `gameId`\n    function getGameInfo (uint32 _gameId) public view returns (address, uint, uint, uint, uint, uint) {\n        require(_gameId < numGames, \"Game ID out of range\");\n        Bet memory game_info = game2Bets[_gameId][0];\n        uint score1 = game_info.betAmount >> 128;\n        uint score2 = game_info.betAmount % (1 << 128);\n        return (game_info.addr, game_info.betTeam, score1, score2, getTeamAmount(_gameId, 1), getTeamAmount(_gameId, 2));\n    }\n\n    // Get total bet amount of game `gameId`\n    function getTotalAmount (uint32 _gameId) public view returns (uint) {\n        return getTeamAmount(_gameId, 1) + getTeamAmount(_gameId, 2);\n    }\n\n    // Get bet amount on `team` of game `gameId`\n    function getTeamAmount (uint32 _gameId, uint8 _team) public view returns (uint) {\n        Bet[] memory bets = game2Bets[_gameId];\n        uint total = 0;\n        for (uint i = 1; i < bets.length; i++) {\n            if (bets[i].betTeam == _team){\n                total += bets[i].betAmount;\n            }\n        }\n        return total;\n    }\n\n}",
  "sourcePath": "/Users/peach/web/blockchain/contracts/lot.sol",
  "compiler": {
    "name": "solc",
    "version": "0.5.0+commit.1d4f565a.Emscripten.clang"
  },
  "schemaVersion": "3.0.9",
  "updatedAt": "2019-06-11T11:26:15.453Z",
  "devdoc": {
    "methods": {
      "isOwner()": {
        "details": "Returns true if the caller is the current owner."
      },
      "owner()": {
        "details": "Returns the address of the current owner."
      },
      "renounceOwnership()": {
        "details": "Leaves the contract without owner. It will not be possible to call `onlyOwner` functions anymore. Can only be called by the current owner.     * > Note: Renouncing ownership will leave the contract without an owner, thereby removing any functionality that is only available to the owner."
      },
      "transferOwnership(address)": {
        "details": "Transfers ownership of the contract to a new account (`newOwner`). Can only be called by the current owner."
      }
    }
  },
  "userdoc": {
    "methods": {}
  }
}